{
  "_format": "hh3-artifact-1",
  "contractName": "RecallOSMemoryRegistry",
  "sourceName": "contracts/RecallOSMemoryRegistry.sol",
  "abi": [
    {
      "inputs": [
        {
          "internalType": "address",
          "name": "target",
          "type": "address"
        }
      ],
      "name": "AddressEmptyCode",
      "type": "error"
    },
    {
      "inputs": [
        {
          "internalType": "address",
          "name": "implementation",
          "type": "address"
        }
      ],
      "name": "ERC1967InvalidImplementation",
      "type": "error"
    },
    {
      "inputs": [],
      "name": "ERC1967NonPayable",
      "type": "error"
    },
    {
      "inputs": [],
      "name": "FailedCall",
      "type": "error"
    },
    {
      "inputs": [],
      "name": "InvalidInitialization",
      "type": "error"
    },
    {
      "inputs": [],
      "name": "NotInitializing",
      "type": "error"
    },
    {
      "inputs": [
        {
          "internalType": "address",
          "name": "owner",
          "type": "address"
        }
      ],
      "name": "OwnableInvalidOwner",
      "type": "error"
    },
    {
      "inputs": [
        {
          "internalType": "address",
          "name": "account",
          "type": "address"
        }
      ],
      "name": "OwnableUnauthorizedAccount",
      "type": "error"
    },
    {
      "inputs": [],
      "name": "UUPSUnauthorizedCallContext",
      "type": "error"
    },
    {
      "inputs": [
        {
          "internalType": "bytes32",
          "name": "slot",
          "type": "bytes32"
        }
      ],
      "name": "UUPSUnsupportedProxiableUUID",
      "type": "error"
    },
    {
      "anonymous": false,
      "inputs": [
        {
          "indexed": true,
          "internalType": "address",
          "name": "user",
          "type": "address"
        },
        {
          "indexed": false,
          "internalType": "uint256",
          "name": "amount",
          "type": "uint256"
        },
        {
          "indexed": false,
          "internalType": "uint256",
          "name": "remainingBalance",
          "type": "uint256"
        },
        {
          "indexed": false,
          "internalType": "uint256",
          "name": "gasUsed",
          "type": "uint256"
        },
        {
          "indexed": false,
          "internalType": "uint256",
          "name": "gasPrice",
          "type": "uint256"
        }
      ],
      "name": "GasDeducted",
      "type": "event"
    },
    {
      "anonymous": false,
      "inputs": [
        {
          "indexed": true,
          "internalType": "address",
          "name": "user",
          "type": "address"
        },
        {
          "indexed": false,
          "internalType": "uint256",
          "name": "amount",
          "type": "uint256"
        },
        {
          "indexed": false,
          "internalType": "uint256",
          "name": "newBalance",
          "type": "uint256"
        },
        {
          "indexed": false,
          "internalType": "uint256",
          "name": "gasUsed",
          "type": "uint256"
        },
        {
          "indexed": false,
          "internalType": "uint256",
          "name": "gasPrice",
          "type": "uint256"
        }
      ],
      "name": "GasDeposited",
      "type": "event"
    },
    {
      "anonymous": false,
      "inputs": [
        {
          "indexed": true,
          "internalType": "address",
          "name": "user",
          "type": "address"
        },
        {
          "indexed": false,
          "internalType": "uint256",
          "name": "amount",
          "type": "uint256"
        },
        {
          "indexed": false,
          "internalType": "uint256",
          "name": "newBalance",
          "type": "uint256"
        },
        {
          "indexed": false,
          "internalType": "uint256",
          "name": "gasUsed",
          "type": "uint256"
        },
        {
          "indexed": false,
          "internalType": "uint256",
          "name": "gasPrice",
          "type": "uint256"
        }
      ],
      "name": "GasWithdrawn",
      "type": "event"
    },
    {
      "anonymous": false,
      "inputs": [
        {
          "indexed": false,
          "internalType": "uint64",
          "name": "version",
          "type": "uint64"
        }
      ],
      "name": "Initialized",
      "type": "event"
    },
    {
      "anonymous": false,
      "inputs": [
        {
          "indexed": true,
          "internalType": "address",
          "name": "user",
          "type": "address"
        },
        {
          "indexed": false,
          "internalType": "uint256",
          "name": "count",
          "type": "uint256"
        },
        {
          "indexed": false,
          "internalType": "uint256",
          "name": "gasUsed",
          "type": "uint256"
        },
        {
          "indexed": false,
          "internalType": "uint256",
          "name": "gasPrice",
          "type": "uint256"
        }
      ],
      "name": "MemoryBatchStored",
      "type": "event"
    },
    {
      "anonymous": false,
      "inputs": [
        {
          "indexed": true,
          "internalType": "address",
          "name": "user",
          "type": "address"
        },
        {
          "indexed": true,
          "internalType": "bytes32",
          "name": "hash",
          "type": "bytes32"
        },
        {
          "indexed": false,
          "internalType": "bytes32",
          "name": "urlHash",
          "type": "bytes32"
        },
        {
          "indexed": false,
          "internalType": "uint256",
          "name": "timestamp",
          "type": "uint256"
        },
        {
          "indexed": false,
          "internalType": "uint256",
          "name": "gasUsed",
          "type": "uint256"
        },
        {
          "indexed": false,
          "internalType": "uint256",
          "name": "gasPrice",
          "type": "uint256"
        }
      ],
      "name": "MemoryStored",
      "type": "event"
    },
    {
      "anonymous": false,
      "inputs": [
        {
          "indexed": true,
          "internalType": "address",
          "name": "previousOwner",
          "type": "address"
        },
        {
          "indexed": true,
          "internalType": "address",
          "name": "newOwner",
          "type": "address"
        }
      ],
      "name": "OwnershipTransferred",
      "type": "event"
    },
    {
      "anonymous": false,
      "inputs": [
        {
          "indexed": true,
          "internalType": "address",
          "name": "relayer",
          "type": "address"
        },
        {
          "indexed": false,
          "internalType": "bool",
          "name": "authorized",
          "type": "bool"
        },
        {
          "indexed": false,
          "internalType": "uint256",
          "name": "gasUsed",
          "type": "uint256"
        },
        {
          "indexed": false,
          "internalType": "uint256",
          "name": "gasPrice",
          "type": "uint256"
        }
      ],
      "name": "RelayerAuthorized",
      "type": "event"
    },
    {
      "anonymous": false,
      "inputs": [
        {
          "indexed": true,
          "internalType": "address",
          "name": "implementation",
          "type": "address"
        }
      ],
      "name": "Upgraded",
      "type": "event"
    },
    {
      "inputs": [],
      "name": "GAS_BUFFER_PERCENT",
      "outputs": [
        {
          "internalType": "uint256",
          "name": "",
          "type": "uint256"
        }
      ],
      "stateMutability": "view",
      "type": "function"
    },
    {
      "inputs": [],
      "name": "MAX_WITHDRAWAL_PER_DAY",
      "outputs": [
        {
          "internalType": "uint256",
          "name": "",
          "type": "uint256"
        }
      ],
      "stateMutability": "view",
      "type": "function"
    },
    {
      "inputs": [],
      "name": "MIN_DEPOSIT",
      "outputs": [
        {
          "internalType": "uint256",
          "name": "",
          "type": "uint256"
        }
      ],
      "stateMutability": "view",
      "type": "function"
    },
    {
      "inputs": [],
      "name": "UPGRADE_INTERFACE_VERSION",
      "outputs": [
        {
          "internalType": "string",
          "name": "",
          "type": "string"
        }
      ],
      "stateMutability": "view",
      "type": "function"
    },
    {
      "inputs": [
        {
          "internalType": "address",
          "name": "relayer",
          "type": "address"
        },
        {
          "internalType": "bool",
          "name": "authorized",
          "type": "bool"
        }
      ],
      "name": "authorizeRelayer",
      "outputs": [],
      "stateMutability": "nonpayable",
      "type": "function"
    },
    {
      "inputs": [
        {
          "internalType": "address",
          "name": "",
          "type": "address"
        }
      ],
      "name": "authorizedRelayers",
      "outputs": [
        {
          "internalType": "bool",
          "name": "",
          "type": "bool"
        }
      ],
      "stateMutability": "view",
      "type": "function"
    },
    {
      "inputs": [
        {
          "internalType": "address",
          "name": "",
          "type": "address"
        }
      ],
      "name": "dailyWithdrawalAmount",
      "outputs": [
        {
          "internalType": "uint256",
          "name": "",
          "type": "uint256"
        }
      ],
      "stateMutability": "view",
      "type": "function"
    },
    {
      "inputs": [],
      "name": "depositGas",
      "outputs": [],
      "stateMutability": "payable",
      "type": "function"
    },
    {
      "inputs": [
        {
          "internalType": "address",
          "name": "_user",
          "type": "address"
        },
        {
          "internalType": "uint256",
          "name": "_startTime",
          "type": "uint256"
        },
        {
          "internalType": "uint256",
          "name": "_endTime",
          "type": "uint256"
        }
      ],
      "name": "getMemoriesByTimestampRange",
      "outputs": [
        {
          "components": [
            {
              "internalType": "bytes32",
              "name": "hash",
              "type": "bytes32"
            },
            {
              "internalType": "bytes32",
              "name": "urlHash",
              "type": "bytes32"
            },
            {
              "internalType": "uint256",
              "name": "timestamp",
              "type": "uint256"
            }
          ],
          "internalType": "struct RecallOSMemoryRegistry.Memory[]",
          "name": "",
          "type": "tuple[]"
        }
      ],
      "stateMutability": "view",
      "type": "function"
    },
    {
      "inputs": [
        {
          "internalType": "address",
          "name": "_user",
          "type": "address"
        },
        {
          "internalType": "bytes32",
          "name": "_urlHash",
          "type": "bytes32"
        }
      ],
      "name": "getMemoriesByUrlHash",
      "outputs": [
        {
          "components": [
            {
              "internalType": "bytes32",
              "name": "hash",
              "type": "bytes32"
            },
            {
              "internalType": "bytes32",
              "name": "urlHash",
              "type": "bytes32"
            },
            {
              "internalType": "uint256",
              "name": "timestamp",
              "type": "uint256"
            }
          ],
          "internalType": "struct RecallOSMemoryRegistry.Memory[]",
          "name": "",
          "type": "tuple[]"
        }
      ],
      "stateMutability": "view",
      "type": "function"
    },
    {
      "inputs": [
        {
          "internalType": "address",
          "name": "_user",
          "type": "address"
        },
        {
          "internalType": "uint256",
          "name": "_index",
          "type": "uint256"
        }
      ],
      "name": "getMemory",
      "outputs": [
        {
          "internalType": "bytes32",
          "name": "hash",
          "type": "bytes32"
        },
        {
          "internalType": "bytes32",
          "name": "urlHash",
          "type": "bytes32"
        },
        {
          "internalType": "uint256",
          "name": "timestamp",
          "type": "uint256"
        }
      ],
      "stateMutability": "view",
      "type": "function"
    },
    {
      "inputs": [
        {
          "internalType": "bytes32",
          "name": "_hash",
          "type": "bytes32"
        }
      ],
      "name": "getMemoryByHash",
      "outputs": [
        {
          "internalType": "address",
          "name": "owner",
          "type": "address"
        },
        {
          "internalType": "bytes32",
          "name": "urlHash",
          "type": "bytes32"
        },
        {
          "internalType": "uint256",
          "name": "timestamp",
          "type": "uint256"
        }
      ],
      "stateMutability": "view",
      "type": "function"
    },
    {
      "inputs": [
        {
          "internalType": "bytes32",
          "name": "_hash",
          "type": "bytes32"
        }
      ],
      "name": "getMemoryOwner",
      "outputs": [
        {
          "internalType": "address",
          "name": "",
          "type": "address"
        }
      ],
      "stateMutability": "view",
      "type": "function"
    },
    {
      "inputs": [
        {
          "internalType": "address",
          "name": "_user",
          "type": "address"
        },
        {
          "internalType": "uint256",
          "name": "_count",
          "type": "uint256"
        }
      ],
      "name": "getRecentMemories",
      "outputs": [
        {
          "components": [
            {
              "internalType": "bytes32",
              "name": "hash",
              "type": "bytes32"
            },
            {
              "internalType": "bytes32",
              "name": "urlHash",
              "type": "bytes32"
            },
            {
              "internalType": "uint256",
              "name": "timestamp",
              "type": "uint256"
            }
          ],
          "internalType": "struct RecallOSMemoryRegistry.Memory[]",
          "name": "",
          "type": "tuple[]"
        }
      ],
      "stateMutability": "view",
      "type": "function"
    },
    {
      "inputs": [
        {
          "internalType": "address",
          "name": "user",
          "type": "address"
        }
      ],
      "name": "getUserGasBalance",
      "outputs": [
        {
          "internalType": "uint256",
          "name": "",
          "type": "uint256"
        }
      ],
      "stateMutability": "view",
      "type": "function"
    },
    {
      "inputs": [
        {
          "internalType": "address",
          "name": "_user",
          "type": "address"
        }
      ],
      "name": "getUserMemories",
      "outputs": [
        {
          "components": [
            {
              "internalType": "bytes32",
              "name": "hash",
              "type": "bytes32"
            },
            {
              "internalType": "bytes32",
              "name": "urlHash",
              "type": "bytes32"
            },
            {
              "internalType": "uint256",
              "name": "timestamp",
              "type": "uint256"
            }
          ],
          "internalType": "struct RecallOSMemoryRegistry.Memory[]",
          "name": "",
          "type": "tuple[]"
        }
      ],
      "stateMutability": "view",
      "type": "function"
    },
    {
      "inputs": [
        {
          "internalType": "address",
          "name": "_user",
          "type": "address"
        }
      ],
      "name": "getUserMemoryCount",
      "outputs": [
        {
          "internalType": "uint256",
          "name": "",
          "type": "uint256"
        }
      ],
      "stateMutability": "view",
      "type": "function"
    },
    {
      "inputs": [],
      "name": "initialize",
      "outputs": [],
      "stateMutability": "nonpayable",
      "type": "function"
    },
    {
      "inputs": [
        {
          "internalType": "address",
          "name": "relayer",
          "type": "address"
        }
      ],
      "name": "isAuthorizedRelayer",
      "outputs": [
        {
          "internalType": "bool",
          "name": "",
          "type": "bool"
        }
      ],
      "stateMutability": "view",
      "type": "function"
    },
    {
      "inputs": [
        {
          "internalType": "bytes32",
          "name": "_hash",
          "type": "bytes32"
        }
      ],
      "name": "isMemoryStored",
      "outputs": [
        {
          "internalType": "bool",
          "name": "",
          "type": "bool"
        }
      ],
      "stateMutability": "view",
      "type": "function"
    },
    {
      "inputs": [
        {
          "internalType": "address",
          "name": "",
          "type": "address"
        }
      ],
      "name": "lastWithdrawalTime",
      "outputs": [
        {
          "internalType": "uint256",
          "name": "",
          "type": "uint256"
        }
      ],
      "stateMutability": "view",
      "type": "function"
    },
    {
      "inputs": [
        {
          "internalType": "bytes32",
          "name": "",
          "type": "bytes32"
        }
      ],
      "name": "memoryExists",
      "outputs": [
        {
          "internalType": "bool",
          "name": "",
          "type": "bool"
        }
      ],
      "stateMutability": "view",
      "type": "function"
    },
    {
      "inputs": [
        {
          "internalType": "bytes32",
          "name": "",
          "type": "bytes32"
        }
      ],
      "name": "memoryOwner",
      "outputs": [
        {
          "internalType": "address",
          "name": "",
          "type": "address"
        }
      ],
      "stateMutability": "view",
      "type": "function"
    },
    {
      "inputs": [],
      "name": "owner",
      "outputs": [
        {
          "internalType": "address",
          "name": "",
          "type": "address"
        }
      ],
      "stateMutability": "view",
      "type": "function"
    },
    {
      "inputs": [],
      "name": "proxiableUUID",
      "outputs": [
        {
          "internalType": "bytes32",
          "name": "",
          "type": "bytes32"
        }
      ],
      "stateMutability": "view",
      "type": "function"
    },
    {
      "inputs": [],
      "name": "renounceOwnership",
      "outputs": [],
      "stateMutability": "nonpayable",
      "type": "function"
    },
    {
      "inputs": [
        {
          "internalType": "bytes32",
          "name": "_hash",
          "type": "bytes32"
        },
        {
          "internalType": "bytes32",
          "name": "_urlHash",
          "type": "bytes32"
        },
        {
          "internalType": "uint256",
          "name": "_timestamp",
          "type": "uint256"
        }
      ],
      "name": "storeMemory",
      "outputs": [],
      "stateMutability": "nonpayable",
      "type": "function"
    },
    {
      "inputs": [
        {
          "internalType": "bytes32[]",
          "name": "_hashes",
          "type": "bytes32[]"
        },
        {
          "internalType": "bytes32[]",
          "name": "_urlHashes",
          "type": "bytes32[]"
        },
        {
          "internalType": "uint256[]",
          "name": "_timestamps",
          "type": "uint256[]"
        }
      ],
      "name": "storeMemoryBatch",
      "outputs": [],
      "stateMutability": "nonpayable",
      "type": "function"
    },
    {
      "inputs": [
        {
          "internalType": "address",
          "name": "newOwner",
          "type": "address"
        }
      ],
      "name": "transferOwnership",
      "outputs": [],
      "stateMutability": "nonpayable",
      "type": "function"
    },
    {
      "inputs": [
        {
          "internalType": "address",
          "name": "newImplementation",
          "type": "address"
        },
        {
          "internalType": "bytes",
          "name": "data",
          "type": "bytes"
        }
      ],
      "name": "upgradeToAndCall",
      "outputs": [],
      "stateMutability": "payable",
      "type": "function"
    },
    {
      "inputs": [
        {
          "internalType": "address",
          "name": "",
          "type": "address"
        }
      ],
      "name": "userGasDeposits",
      "outputs": [
        {
          "internalType": "uint256",
          "name": "",
          "type": "uint256"
        }
      ],
      "stateMutability": "view",
      "type": "function"
    },
    {
      "inputs": [
        {
          "internalType": "address",
          "name": "",
          "type": "address"
        },
        {
          "internalType": "uint256",
          "name": "",
          "type": "uint256"
        }
      ],
      "name": "userMemories",
      "outputs": [
        {
          "internalType": "bytes32",
          "name": "hash",
          "type": "bytes32"
        },
        {
          "internalType": "bytes32",
          "name": "urlHash",
          "type": "bytes32"
        },
        {
          "internalType": "uint256",
          "name": "timestamp",
          "type": "uint256"
        }
      ],
      "stateMutability": "view",
      "type": "function"
    },
    {
      "inputs": [
        {
          "internalType": "address",
          "name": "",
          "type": "address"
        }
      ],
      "name": "userMemoryCount",
      "outputs": [
        {
          "internalType": "uint256",
          "name": "",
          "type": "uint256"
        }
      ],
      "stateMutability": "view",
      "type": "function"
    },
    {
      "inputs": [
        {
          "internalType": "uint256",
          "name": "amount",
          "type": "uint256"
        }
      ],
      "name": "withdrawGas",
      "outputs": [],
      "stateMutability": "nonpayable",
      "type": "function"
    }
  ],
  "bytecode": "0x60a06040523073ffffffffffffffffffffffffffffffffffffffff1660809073ffffffffffffffffffffffffffffffffffffffff168152503480156041575f5ffd5b506080516142606100685f395f818161277d015281816127d2015261298c01526142605ff3fe6080604052600436106101f8575f3560e01c80638da5cb5b1161010c578063bb383c691161009f578063e0f324d91161006e578063e0f324d914610786578063e1a404e6146107c2578063e1e158a5146107fe578063e9daea0c14610828578063f2fde38b14610864576101f8565b8063bb383c6914610694578063c7fb4e7d146106d0578063cd57ca451461070e578063d1bd0dc61461074a576101f8565b8063ad3cb1cc116100db578063ad3cb1cc146105fc578063ae9bb69214610626578063b15c9b8014610630578063b8ea99bf1461066c576101f8565b80638da5cb5b14610532578063916575441461055c57806393e5a5f4146105845780639e9a2c43146105c0576101f8565b80634de5120e1161018f5780636b36f9951161015e5780636b36f99514610466578063715018a6146104a257806378981a81146104b85780638129fc1c146104f457806387d466551461050a576101f8565b80634de5120e146103a85780634f1ef286146103e457806352d1902d1461040057806365c24a851461042a576101f8565b806324e2e47f116101cb57806324e2e47f146102c85780632739f674146102f2578063275310421461033057806329e295c51461036c576101f8565b8063019e6579146101fc57806309c5d1601461022657806318657b871461024e5780632358168c1461028c575b5f5ffd5b348015610207575f5ffd5b5061021061088c565b60405161021d9190613022565b60405180910390f35b348015610231575f5ffd5b5061024c60048036038101906102479190613102565b610898565b005b348015610259575f5ffd5b50610274600480360381019061026f9190613236565b610d8c565b6040516102839392919061328c565b60405180910390f35b348015610297575f5ffd5b506102b260048036038101906102ad91906132c1565b610eb1565b6040516102bf91906133f2565b60405180910390f35b3480156102d3575f5ffd5b506102dc610f66565b6040516102e99190613022565b60405180910390f35b3480156102fd575f5ffd5b5061031860048036038101906103139190613236565b610f6b565b6040516103279392919061328c565b60405180910390f35b34801561033b575f5ffd5b50610356600480360381019061035191906132c1565b610faa565b6040516103639190613022565b60405180910390f35b348015610377575f5ffd5b50610392600480360381019061038d91906132c1565b610fbf565b60405161039f919061342c565b60405180910390f35b3480156103b3575f5ffd5b506103ce60048036038101906103c991906132c1565b610fdc565b6040516103db9190613022565b60405180910390f35b6103fe60048036038101906103f9919061357d565b610ff1565b005b34801561040b575f5ffd5b50610414611010565b60405161042191906135d7565b60405180910390f35b348015610435575f5ffd5b50610450600480360381019061044b9190613236565b611041565b60405161045d91906133f2565b60405180910390f35b348015610471575f5ffd5b5061048c600480360381019061048791906132c1565b6111ca565b6040516104999190613022565b60405180910390f35b3480156104ad575f5ffd5b506104b66111df565b005b3480156104c3575f5ffd5b506104de60048036038101906104d9919061361a565b6111f2565b6040516104eb9190613654565b60405180910390f35b3480156104ff575f5ffd5b5061050861122b565b005b348015610515575f5ffd5b50610530600480360381019061052b9190613697565b611453565b005b34801561053d575f5ffd5b50610546611505565b6040516105539190613654565b60405180910390f35b348015610567575f5ffd5b50610582600480360381019061057d91906136d5565b61153a565b005b34801561058f575f5ffd5b506105aa60048036038101906105a59190613700565b61195f565b6040516105b791906133f2565b60405180910390f35b3480156105cb575f5ffd5b506105e660048036038101906105e191906132c1565b611b55565b6040516105f39190613022565b60405180910390f35b348015610607575f5ffd5b50610610611b6a565b60405161061d919061379e565b60405180910390f35b61062e611ba3565b005b34801561063b575f5ffd5b50610656600480360381019061065191906137be565b611cd3565b60405161066391906133f2565b60405180910390f35b348015610677575f5ffd5b50610692600480360381019061068d919061380e565b611f22565b005b34801561069f575f5ffd5b506106ba60048036038101906106b591906132c1565b612221565b6040516106c79190613022565b60405180910390f35b3480156106db575f5ffd5b506106f660048036038101906106f1919061361a565b612267565b6040516107059392919061385e565b60405180910390f35b348015610719575f5ffd5b50610734600480360381019061072f91906132c1565b612479565b6040516107419190613022565b60405180910390f35b348015610755575f5ffd5b50610770600480360381019061076b919061361a565b6124bf565b60405161077d919061342c565b60405180910390f35b348015610791575f5ffd5b506107ac60048036038101906107a791906132c1565b6124dc565b6040516107b9919061342c565b60405180910390f35b3480156107cd575f5ffd5b506107e860048036038101906107e3919061361a565b61252e565b6040516107f59190613654565b60405180910390f35b348015610809575f5ffd5b5061081261255e565b60405161081f9190613022565b60405180910390f35b348015610833575f5ffd5b5061084e6004803603810190610849919061361a565b612569565b60405161085b919061342c565b60405180910390f35b34801561086f575f5ffd5b5061088a600480360381019061088591906132c1565b61258f565b005b670de0b6b3a764000081565b83839050868690501480156108b257508181905084849050145b6108f1576040517f08c379a00000000000000000000000000000000000000000000000000000000081526004016108e8906138dd565b60405180910390fd5b5f8686905011610936576040517f08c379a000000000000000000000000000000000000000000000000000000000815260040161092d90613945565b60405180910390fd5b60055f3373ffffffffffffffffffffffffffffffffffffffff1673ffffffffffffffffffffffffffffffffffffffff1681526020019081526020015f205f9054906101000a900460ff166109bf576040517f08c379a00000000000000000000000000000000000000000000000000000000081526004016109b6906139ad565b60405180910390fd5b5f5a90505f5f90505b87879050811015610cde5760025f8989848181106109e9576109e86139cb565b5b9050602002013581526020019081526020015f205f9054906101000a900460ff1615610a4a576040517f08c379a0000000000000000000000000000000000000000000000000000000008152600401610a4190613a42565b60405180910390fd5b5f60405180606001604052808a8a85818110610a6957610a686139cb565b5b905060200201358152602001888885818110610a8857610a876139cb565b5b905060200201358152602001868685818110610aa757610aa66139cb565b5b9050602002013581525090505f5f3273ffffffffffffffffffffffffffffffffffffffff1673ffffffffffffffffffffffffffffffffffffffff1681526020019081526020015f2081908060018154018082558091505060019003905f5260205f2090600302015f909190919091505f820151815f01556020820151816001015560408201518160020155505060015f3273ffffffffffffffffffffffffffffffffffffffff1673ffffffffffffffffffffffffffffffffffffffff1681526020019081526020015f205f815480929190610b8190613a8d565b9190505550600160025f8b8b86818110610b9e57610b9d6139cb565b5b9050602002013581526020019081526020015f205f6101000a81548160ff0219169083151502179055503260035f8b8b86818110610bdf57610bde6139cb565b5b9050602002013581526020019081526020015f205f6101000a81548173ffffffffffffffffffffffffffffffffffffffff021916908373ffffffffffffffffffffffffffffffffffffffff160217905550888883818110610c4357610c426139cb565b5b905060200201353273ffffffffffffffffffffffffffffffffffffffff167fb4fa7d8f210f0205c2df5e662ddcbeee5e6d115cfc55efed90712c1221474d65898986818110610c9557610c946139cb565b5b90506020020135888887818110610caf57610cae6139cb565b5b905060200201355f5f604051610cc89493929190613b16565b60405180910390a35080806001019150506109c8565b505f6152085a83610cef9190613b59565b610cf99190613b8c565b90505f60646078833a610d0c9190613bbf565b610d169190613bbf565b610d209190613c2d565b9050610d2c3282612613565b3273ffffffffffffffffffffffffffffffffffffffff167fdbbc3cdddcac02c3697fc121f5c4bd10d4e94eb9790210a08dafcf7ad9e4c1168a8a9050843a604051610d7993929190613c5d565b60405180910390a2505050505050505050565b5f5f5f5f5f8673ffffffffffffffffffffffffffffffffffffffff1673ffffffffffffffffffffffffffffffffffffffff1681526020019081526020015f20805490508410610e10576040517f08c379a0000000000000000000000000000000000000000000000000000000008152600401610e0790613cdc565b60405180910390fd5b5f5f5f8773ffffffffffffffffffffffffffffffffffffffff1673ffffffffffffffffffffffffffffffffffffffff1681526020019081526020015f208581548110610e5f57610e5e6139cb565b5b905f5260205f2090600302016040518060600160405290815f8201548152602001600182015481526020016002820154815250509050805f015181602001518260400151935093509350509250925092565b60605f5f8373ffffffffffffffffffffffffffffffffffffffff1673ffffffffffffffffffffffffffffffffffffffff1681526020019081526020015f20805480602002602001604051908101604052809291908181526020015f905b82821015610f5b578382905f5260205f2090600302016040518060600160405290815f82015481526020016001820154815260200160028201548152505081526020019060010190610f0e565b505050509050919050565b607881565b5f602052815f5260405f208181548110610f83575f80fd5b905f5260205f2090600302015f9150915050805f0154908060010154908060020154905083565b6001602052805f5260405f205f915090505481565b6005602052805f5260405f205f915054906101000a900460ff1681565b6006602052805f5260405f205f915090505481565b610ff961277b565b61100282612861565b61100c828261286c565b5050565b5f61101961298a565b7f360894a13ba1a3210667c828492db98dca3e2076cc3735a920a3ca505d382bbc5f1b905090565b60605f5f5f8573ffffffffffffffffffffffffffffffffffffffff1673ffffffffffffffffffffffffffffffffffffffff1681526020019081526020015f2080549050905080831115611092578092505b5f8367ffffffffffffffff8111156110ad576110ac613459565b5b6040519080825280602002602001820160405280156110e657816020015b6110d3612fec565b8152602001906001900390816110cb5790505b5090505f84836110f69190613b59565b90505f5f90505b858110156111bd575f5f8873ffffffffffffffffffffffffffffffffffffffff1673ffffffffffffffffffffffffffffffffffffffff1681526020019081526020015f20818361114d9190613b8c565b8154811061115e5761115d6139cb565b5b905f5260205f2090600302016040518060600160405290815f8201548152602001600182015481526020016002820154815250508382815181106111a5576111a46139cb565b5b602002602001018190525080806001019150506110fd565b5081935050505092915050565b6007602052805f5260405f205f915090505481565b6111e7612a11565b6111f05f612a98565b565b5f60035f8381526020019081526020015f205f9054906101000a900473ffffffffffffffffffffffffffffffffffffffff169050919050565b5f611234612b69565b90505f815f0160089054906101000a900460ff161590505f825f015f9054906101000a900467ffffffffffffffff1690505f5f8267ffffffffffffffff1614801561127c5750825b90505f60018367ffffffffffffffff161480156112af57505f3073ffffffffffffffffffffffffffffffffffffffff163b145b9050811580156112bd575080155b156112f4576040517ff92ee8a900000000000000000000000000000000000000000000000000000000815260040160405180910390fd5b6001855f015f6101000a81548167ffffffffffffffff021916908367ffffffffffffffff1602179055508315611341576001855f0160086101000a81548160ff0219169083151502179055505b61134a33612b7c565b600160055f3373ffffffffffffffffffffffffffffffffffffffff1673ffffffffffffffffffffffffffffffffffffffff1681526020019081526020015f205f6101000a81548160ff0219169083151502179055503373ffffffffffffffffffffffffffffffffffffffff167f2405e85ca697a02db85b6894fc4840fb1cd824e08fce7bda871ce56e592aa67f60015f5f6040516113ea93929190613cfa565b60405180910390a2831561144c575f855f0160086101000a81548160ff0219169083151502179055507fc7f505b2f371ae2175ee4913f4499e1f2633a7b5936321eed1cdaeb6115181d260016040516114439190613d7b565b60405180910390a15b5050505050565b61145b612a11565b8060055f8473ffffffffffffffffffffffffffffffffffffffff1673ffffffffffffffffffffffffffffffffffffffff1681526020019081526020015f205f6101000a81548160ff0219169083151502179055508173ffffffffffffffffffffffffffffffffffffffff167f2405e85ca697a02db85b6894fc4840fb1cd824e08fce7bda871ce56e592aa67f825f5f6040516114f993929190613cfa565b60405180910390a25050565b5f5f61150f612b90565b9050805f015f9054906101000a900473ffffffffffffffffffffffffffffffffffffffff1691505090565b5f811161157c576040517f08c379a000000000000000000000000000000000000000000000000000000000815260040161157390613dde565b60405180910390fd5b8060045f3373ffffffffffffffffffffffffffffffffffffffff1673ffffffffffffffffffffffffffffffffffffffff1681526020019081526020015f205410156115fc576040517f08c379a00000000000000000000000000000000000000000000000000000000081526004016115f390613e46565b60405180910390fd5b5f4290505f6201518080836116119190613c2d565b61161b9190613bbf565b90508060065f3373ffffffffffffffffffffffffffffffffffffffff1673ffffffffffffffffffffffffffffffffffffffff1681526020019081526020015f205410156116a5575f60075f3373ffffffffffffffffffffffffffffffffffffffff1673ffffffffffffffffffffffffffffffffffffffff1681526020019081526020015f20819055505b670de0b6b3a76400008360075f3373ffffffffffffffffffffffffffffffffffffffff1673ffffffffffffffffffffffffffffffffffffffff1681526020019081526020015f20546116f79190613b8c565b1115611738576040517f08c379a000000000000000000000000000000000000000000000000000000000815260040161172f90613eae565b60405180910390fd5b8260045f3373ffffffffffffffffffffffffffffffffffffffff1673ffffffffffffffffffffffffffffffffffffffff1681526020019081526020015f205f8282546117849190613b59565b925050819055508260075f3373ffffffffffffffffffffffffffffffffffffffff1673ffffffffffffffffffffffffffffffffffffffff1681526020019081526020015f205f8282546117d79190613b8c565b925050819055508160065f3373ffffffffffffffffffffffffffffffffffffffff1673ffffffffffffffffffffffffffffffffffffffff1681526020019081526020015f20819055505f3373ffffffffffffffffffffffffffffffffffffffff168460405161184590613ef9565b5f6040518083038185875af1925050503d805f811461187f576040519150601f19603f3d011682016040523d82523d5f602084013e611884565b606091505b50509050806118c8576040517f08c379a00000000000000000000000000000000000000000000000000000000081526004016118bf90613f57565b60405180910390fd5b3373ffffffffffffffffffffffffffffffffffffffff167fdf9b2ed1c2415fb82732cd32997591c716585f572938ececa63fe59b1ed414038560045f3373ffffffffffffffffffffffffffffffffffffffff1673ffffffffffffffffffffffffffffffffffffffff1681526020019081526020015f20545f5f6040516119519493929190613f75565b60405180910390a250505050565b60605f5f5f8573ffffffffffffffffffffffffffffffffffffffff1673ffffffffffffffffffffffffffffffffffffffff1681526020019081526020015f20805480602002602001604051908101604052809291908181526020015f905b82821015611a0a578382905f5260205f2090600302016040518060600160405290815f820154815260200160018201548152602001600282015481525050815260200190600101906119bd565b5050505090505f5f90505f5f90505b8251811015611a635784838281518110611a3657611a356139cb565b5b60200260200101516020015103611a56578180611a5290613a8d565b9250505b8080600101915050611a19565b505f8167ffffffffffffffff811115611a7f57611a7e613459565b5b604051908082528060200260200182016040528015611ab857816020015b611aa5612fec565b815260200190600190039081611a9d5790505b5090505f5f90505f5f90505b8451811015611b475786858281518110611ae157611ae06139cb565b5b60200260200101516020015103611b3a57848181518110611b0557611b046139cb565b5b6020026020010151838381518110611b2057611b1f6139cb565b5b60200260200101819052508180611b3690613a8d565b9250505b8080600101915050611ac4565b508194505050505092915050565b6004602052805f5260405f205f915090505481565b6040518060400160405280600581526020017f352e302e3000000000000000000000000000000000000000000000000000000081525081565b66038d7ea4c68000341015611bed576040517f08c379a0000000000000000000000000000000000000000000000000000000008152600401611be490614002565b60405180910390fd5b3460045f3373ffffffffffffffffffffffffffffffffffffffff1673ffffffffffffffffffffffffffffffffffffffff1681526020019081526020015f205f828254611c399190613b8c565b925050819055503373ffffffffffffffffffffffffffffffffffffffff167f7450599c545d1aca9cc5026e52fedfc3b8950416eb67ff0a1ecaad49a87d75753460045f3373ffffffffffffffffffffffffffffffffffffffff1673ffffffffffffffffffffffffffffffffffffffff1681526020019081526020015f20545f5f604051611cc99493929190613f75565b60405180910390a2565b60605f5f5f8673ffffffffffffffffffffffffffffffffffffffff1673ffffffffffffffffffffffffffffffffffffffff1681526020019081526020015f20805480602002602001604051908101604052809291908181526020015f905b82821015611d7e578382905f5260205f2090600302016040518060600160405290815f82015481526020016001820154815260200160028201548152505081526020019060010190611d31565b5050505090505f5f90505f5f90505b8251811015611e035785838281518110611daa57611da96139cb565b5b60200260200101516040015110158015611de2575084838281518110611dd357611dd26139cb565b5b60200260200101516040015111155b15611df6578180611df290613a8d565b9250505b8080600101915050611d8d565b505f8167ffffffffffffffff811115611e1f57611e1e613459565b5b604051908082528060200260200182016040528015611e5857816020015b611e45612fec565b815260200190600190039081611e3d5790505b5090505f5f90505f5f90505b8451811015611f135787858281518110611e8157611e806139cb565b5b60200260200101516040015110158015611eb9575086858281518110611eaa57611ea96139cb565b5b60200260200101516040015111155b15611f0657848181518110611ed157611ed06139cb565b5b6020026020010151838381518110611eec57611eeb6139cb565b5b60200260200101819052508180611f0290613a8d565b9250505b8080600101915050611e64565b50819450505050509392505050565b60025f8481526020019081526020015f205f9054906101000a900460ff1615611f80576040517f08c379a0000000000000000000000000000000000000000000000000000000008152600401611f7790613a42565b60405180910390fd5b60055f3373ffffffffffffffffffffffffffffffffffffffff1673ffffffffffffffffffffffffffffffffffffffff1681526020019081526020015f205f9054906101000a900460ff16612009576040517f08c379a0000000000000000000000000000000000000000000000000000000008152600401612000906139ad565b60405180910390fd5b5f5a90505f60405180606001604052808681526020018581526020018481525090505f5f3273ffffffffffffffffffffffffffffffffffffffff1673ffffffffffffffffffffffffffffffffffffffff1681526020019081526020015f2081908060018154018082558091505060019003905f5260205f2090600302015f909190919091505f820151815f01556020820151816001015560408201518160020155505060015f3273ffffffffffffffffffffffffffffffffffffffff1673ffffffffffffffffffffffffffffffffffffffff1681526020019081526020015f205f8154809291906120f990613a8d565b9190505550600160025f8781526020019081526020015f205f6101000a81548160ff0219169083151502179055503260035f8781526020019081526020015f205f6101000a81548173ffffffffffffffffffffffffffffffffffffffff021916908373ffffffffffffffffffffffffffffffffffffffff1602179055505f6152085a846121869190613b59565b6121909190613b8c565b90505f60646078833a6121a39190613bbf565b6121ad9190613bbf565b6121b79190613c2d565b90506121c33282612613565b863273ffffffffffffffffffffffffffffffffffffffff167fb4fa7d8f210f0205c2df5e662ddcbeee5e6d115cfc55efed90712c1221474d658888863a6040516122109493929190614020565b60405180910390a350505050505050565b5f60045f8373ffffffffffffffffffffffffffffffffffffffff1673ffffffffffffffffffffffffffffffffffffffff1681526020019081526020015f20549050919050565b5f5f5f60025f8581526020019081526020015f205f9054906101000a900460ff166122c7576040517f08c379a00000000000000000000000000000000000000000000000000000000081526004016122be906140ad565b60405180910390fd5b5f60035f8681526020019081526020015f205f9054906101000a900473ffffffffffffffffffffffffffffffffffffffff1690505f5f5f8373ffffffffffffffffffffffffffffffffffffffff1673ffffffffffffffffffffffffffffffffffffffff1681526020019081526020015f20805480602002602001604051908101604052809291908181526020015f905b828210156123a4578382905f5260205f2090600302016040518060600160405290815f82015481526020016001820154815260200160028201548152505081526020019060010190612357565b5050505090505f5f90505b815181101561243657868282815181106123cc576123cb6139cb565b5b60200260200101515f01510361242957828282815181106123f0576123ef6139cb565b5b60200260200101516020015183838151811061240f5761240e6139cb565b5b602002602001015160400151955095509550505050612472565b80806001019150506123af565b506040517f08c379a000000000000000000000000000000000000000000000000000000000815260040161246990614115565b60405180910390fd5b9193909250565b5f60015f8373ffffffffffffffffffffffffffffffffffffffff1673ffffffffffffffffffffffffffffffffffffffff1681526020019081526020015f20549050919050565b6002602052805f5260405f205f915054906101000a900460ff1681565b5f60055f8373ffffffffffffffffffffffffffffffffffffffff1673ffffffffffffffffffffffffffffffffffffffff1681526020019081526020015f205f9054906101000a900460ff169050919050565b6003602052805f5260405f205f915054906101000a900473ffffffffffffffffffffffffffffffffffffffff1681565b66038d7ea4c6800081565b5f60025f8381526020019081526020015f205f9054906101000a900460ff169050919050565b612597612a11565b5f73ffffffffffffffffffffffffffffffffffffffff168173ffffffffffffffffffffffffffffffffffffffff1603612607575f6040517f1e4fbdf70000000000000000000000000000000000000000000000000000000081526004016125fe9190613654565b60405180910390fd5b61261081612a98565b50565b8060045f8473ffffffffffffffffffffffffffffffffffffffff1673ffffffffffffffffffffffffffffffffffffffff1681526020019081526020015f20541015612693576040517f08c379a000000000000000000000000000000000000000000000000000000000815260040161268a9061417d565b60405180910390fd5b8060045f8473ffffffffffffffffffffffffffffffffffffffff1673ffffffffffffffffffffffffffffffffffffffff1681526020019081526020015f205f8282546126df9190613b59565b925050819055508173ffffffffffffffffffffffffffffffffffffffff167f0191c56c566a57fb6d566cc4dbd935951ac3405aa29a46c24d27559f6e4658f28260045f8673ffffffffffffffffffffffffffffffffffffffff1673ffffffffffffffffffffffffffffffffffffffff1681526020019081526020015f20545f5f60405161276f9493929190613f75565b60405180910390a25050565b7f000000000000000000000000000000000000000000000000000000000000000073ffffffffffffffffffffffffffffffffffffffff163073ffffffffffffffffffffffffffffffffffffffff16148061282857507f000000000000000000000000000000000000000000000000000000000000000073ffffffffffffffffffffffffffffffffffffffff1661280f612bb7565b73ffffffffffffffffffffffffffffffffffffffff1614155b1561285f576040517fe07c8dba00000000000000000000000000000000000000000000000000000000815260040160405180910390fd5b565b612869612a11565b50565b8173ffffffffffffffffffffffffffffffffffffffff166352d1902d6040518163ffffffff1660e01b8152600401602060405180830381865afa9250505080156128d457506040513d601f19601f820116820180604052508101906128d191906141af565b60015b61291557816040517f4c9c8ce300000000000000000000000000000000000000000000000000000000815260040161290c9190613654565b60405180910390fd5b7f360894a13ba1a3210667c828492db98dca3e2076cc3735a920a3ca505d382bbc5f1b811461297b57806040517faa1d49a400000000000000000000000000000000000000000000000000000000815260040161297291906135d7565b60405180910390fd5b6129858383612c0a565b505050565b7f000000000000000000000000000000000000000000000000000000000000000073ffffffffffffffffffffffffffffffffffffffff163073ffffffffffffffffffffffffffffffffffffffff1614612a0f576040517fe07c8dba00000000000000000000000000000000000000000000000000000000815260040160405180910390fd5b565b612a19612c7c565b73ffffffffffffffffffffffffffffffffffffffff16612a37611505565b73ffffffffffffffffffffffffffffffffffffffff1614612a9657612a5a612c7c565b6040517f118cdaa7000000000000000000000000000000000000000000000000000000008152600401612a8d9190613654565b60405180910390fd5b565b5f612aa1612b90565b90505f815f015f9054906101000a900473ffffffffffffffffffffffffffffffffffffffff16905082825f015f6101000a81548173ffffffffffffffffffffffffffffffffffffffff021916908373ffffffffffffffffffffffffffffffffffffffff1602179055508273ffffffffffffffffffffffffffffffffffffffff168173ffffffffffffffffffffffffffffffffffffffff167f8be0079c531659141344cd1fd0a4f28419497f9722a3daafe3b4186f6b6457e060405160405180910390a3505050565b5f5f612b73612c83565b90508091505090565b612b84612cac565b612b8d81612cec565b50565b5f7f9016d09d72d40fdae2fd8ceac6b6234c7706214fd39c1cd1e609a0528c199300905090565b5f612be37f360894a13ba1a3210667c828492db98dca3e2076cc3735a920a3ca505d382bbc5f1b612d70565b5f015f9054906101000a900473ffffffffffffffffffffffffffffffffffffffff16905090565b612c1382612d79565b8173ffffffffffffffffffffffffffffffffffffffff167fbc7cd75a20ee27fd9adebab32041f755214dbc6bffa90cc0225b39da2e5c2d3b60405160405180910390a25f81511115612c6f57612c698282612e42565b50612c78565b612c77612ec2565b5b5050565b5f33905090565b5f7ff0c57e16840df040f15088dc2f81fe391c3923bec73e23a9662efc9c229c6a005f1b905090565b612cb4612efe565b612cea576040517fd7e6bcf800000000000000000000000000000000000000000000000000000000815260040160405180910390fd5b565b612cf4612cac565b5f73ffffffffffffffffffffffffffffffffffffffff168173ffffffffffffffffffffffffffffffffffffffff1603612d64575f6040517f1e4fbdf7000000000000000000000000000000000000000000000000000000008152600401612d5b9190613654565b60405180910390fd5b612d6d81612a98565b50565b5f819050919050565b5f8173ffffffffffffffffffffffffffffffffffffffff163b03612dd457806040517f4c9c8ce3000000000000000000000000000000000000000000000000000000008152600401612dcb9190613654565b60405180910390fd5b80612e007f360894a13ba1a3210667c828492db98dca3e2076cc3735a920a3ca505d382bbc5f1b612d70565b5f015f6101000a81548173ffffffffffffffffffffffffffffffffffffffff021916908373ffffffffffffffffffffffffffffffffffffffff16021790555050565b60605f5f8473ffffffffffffffffffffffffffffffffffffffff1684604051612e6b9190614214565b5f60405180830381855af49150503d805f8114612ea3576040519150601f19603f3d011682016040523d82523d5f602084013e612ea8565b606091505b5091509150612eb8858383612f1c565b9250505092915050565b5f341115612efc576040517fb398979f00000000000000000000000000000000000000000000000000000000815260040160405180910390fd5b565b5f612f07612b69565b5f0160089054906101000a900460ff16905090565b606082612f3157612f2c82612fa9565b612fa1565b5f8251148015612f5757505f8473ffffffffffffffffffffffffffffffffffffffff163b145b15612f9957836040517f9996b315000000000000000000000000000000000000000000000000000000008152600401612f909190613654565b60405180910390fd5b819050612fa2565b5b9392505050565b5f81511115612fba57805160208201fd5b6040517fd6bda27500000000000000000000000000000000000000000000000000000000815260040160405180910390fd5b60405180606001604052805f81526020015f81526020015f81525090565b5f819050919050565b61301c8161300a565b82525050565b5f6020820190506130355f830184613013565b92915050565b5f604051905090565b5f5ffd5b5f5ffd5b5f5ffd5b5f5ffd5b5f5ffd5b5f5f83601f84011261306d5761306c61304c565b5b8235905067ffffffffffffffff81111561308a57613089613050565b5b6020830191508360208202830111156130a6576130a5613054565b5b9250929050565b5f5f83601f8401126130c2576130c161304c565b5b8235905067ffffffffffffffff8111156130df576130de613050565b5b6020830191508360208202830111156130fb576130fa613054565b5b9250929050565b5f5f5f5f5f5f6060878903121561311c5761311b613044565b5b5f87013567ffffffffffffffff81111561313957613138613048565b5b61314589828a01613058565b9650965050602087013567ffffffffffffffff81111561316857613167613048565b5b61317489828a01613058565b9450945050604087013567ffffffffffffffff81111561319757613196613048565b5b6131a389828a016130ad565b92509250509295509295509295565b5f73ffffffffffffffffffffffffffffffffffffffff82169050919050565b5f6131db826131b2565b9050919050565b6131eb816131d1565b81146131f5575f5ffd5b50565b5f81359050613206816131e2565b92915050565b6132158161300a565b811461321f575f5ffd5b50565b5f813590506132308161320c565b92915050565b5f5f6040838503121561324c5761324b613044565b5b5f613259858286016131f8565b925050602061326a85828601613222565b9150509250929050565b5f819050919050565b61328681613274565b82525050565b5f60608201905061329f5f83018661327d565b6132ac602083018561327d565b6132b96040830184613013565b949350505050565b5f602082840312156132d6576132d5613044565b5b5f6132e3848285016131f8565b91505092915050565b5f81519050919050565b5f82825260208201905092915050565b5f819050602082019050919050565b61331e81613274565b82525050565b61332d8161300a565b82525050565b606082015f8201516133475f850182613315565b50602082015161335a6020850182613315565b50604082015161336d6040850182613324565b50505050565b5f61337e8383613333565b60608301905092915050565b5f602082019050919050565b5f6133a0826132ec565b6133aa81856132f6565b93506133b583613306565b805f5b838110156133e55781516133cc8882613373565b97506133d78361338a565b9250506001810190506133b8565b5085935050505092915050565b5f6020820190508181035f83015261340a8184613396565b905092915050565b5f8115159050919050565b61342681613412565b82525050565b5f60208201905061343f5f83018461341d565b92915050565b5f5ffd5b5f601f19601f8301169050919050565b7f4e487b71000000000000000000000000000000000000000000000000000000005f52604160045260245ffd5b61348f82613449565b810181811067ffffffffffffffff821117156134ae576134ad613459565b5b80604052505050565b5f6134c061303b565b90506134cc8282613486565b919050565b5f67ffffffffffffffff8211156134eb576134ea613459565b5b6134f482613449565b9050602081019050919050565b828183375f83830152505050565b5f61352161351c846134d1565b6134b7565b90508281526020810184848401111561353d5761353c613445565b5b613548848285613501565b509392505050565b5f82601f8301126135645761356361304c565b5b813561357484826020860161350f565b91505092915050565b5f5f6040838503121561359357613592613044565b5b5f6135a0858286016131f8565b925050602083013567ffffffffffffffff8111156135c1576135c0613048565b5b6135cd85828601613550565b9150509250929050565b5f6020820190506135ea5f83018461327d565b92915050565b6135f981613274565b8114613603575f5ffd5b50565b5f81359050613614816135f0565b92915050565b5f6020828403121561362f5761362e613044565b5b5f61363c84828501613606565b91505092915050565b61364e816131d1565b82525050565b5f6020820190506136675f830184613645565b92915050565b61367681613412565b8114613680575f5ffd5b50565b5f813590506136918161366d565b92915050565b5f5f604083850312156136ad576136ac613044565b5b5f6136ba858286016131f8565b92505060206136cb85828601613683565b9150509250929050565b5f602082840312156136ea576136e9613044565b5b5f6136f784828501613222565b91505092915050565b5f5f6040838503121561371657613715613044565b5b5f613723858286016131f8565b925050602061373485828601613606565b9150509250929050565b5f81519050919050565b5f82825260208201905092915050565b8281835e5f83830152505050565b5f6137708261373e565b61377a8185613748565b935061378a818560208601613758565b61379381613449565b840191505092915050565b5f6020820190508181035f8301526137b68184613766565b905092915050565b5f5f5f606084860312156137d5576137d4613044565b5b5f6137e2868287016131f8565b93505060206137f386828701613222565b925050604061380486828701613222565b9150509250925092565b5f5f5f6060848603121561382557613824613044565b5b5f61383286828701613606565b935050602061384386828701613606565b925050604061385486828701613222565b9150509250925092565b5f6060820190506138715f830186613645565b61387e602083018561327d565b61388b6040830184613013565b949350505050565b7f4172726179206c656e67746873206d757374206d6174636800000000000000005f82015250565b5f6138c7601883613748565b91506138d282613893565b602082019050919050565b5f6020820190508181035f8301526138f4816138bb565b9050919050565b7f4d7573742073746f7265206174206c65617374206f6e65206d656d6f727900005f82015250565b5f61392f601e83613748565b915061393a826138fb565b602082019050919050565b5f6020820190508181035f83015261395c81613923565b9050919050565b7f556e617574686f72697a65642072656c617965720000000000000000000000005f82015250565b5f613997601483613748565b91506139a282613963565b602082019050919050565b5f6020820190508181035f8301526139c48161398b565b9050919050565b7f4e487b71000000000000000000000000000000000000000000000000000000005f52603260045260245ffd5b7f4d656d6f727920616c72656164792065786973747300000000000000000000005f82015250565b5f613a2c601583613748565b9150613a37826139f8565b602082019050919050565b5f6020820190508181035f830152613a5981613a20565b9050919050565b7f4e487b71000000000000000000000000000000000000000000000000000000005f52601160045260245ffd5b5f613a978261300a565b91507fffffffffffffffffffffffffffffffffffffffffffffffffffffffffffffffff8203613ac957613ac8613a60565b5b600182019050919050565b5f819050919050565b5f819050919050565b5f613b00613afb613af684613ad4565b613add565b61300a565b9050919050565b613b1081613ae6565b82525050565b5f608082019050613b295f83018761327d565b613b366020830186613013565b613b436040830185613b07565b613b506060830184613b07565b95945050505050565b5f613b638261300a565b9150613b6e8361300a565b9250828203905081811115613b8657613b85613a60565b5b92915050565b5f613b968261300a565b9150613ba18361300a565b9250828201905080821115613bb957613bb8613a60565b5b92915050565b5f613bc98261300a565b9150613bd48361300a565b9250828202613be28161300a565b91508282048414831517613bf957613bf8613a60565b5b5092915050565b7f4e487b71000000000000000000000000000000000000000000000000000000005f52601260045260245ffd5b5f613c378261300a565b9150613c428361300a565b925082613c5257613c51613c00565b5b828204905092915050565b5f606082019050613c705f830186613013565b613c7d6020830185613013565b613c8a6040830184613013565b949350505050565b7f496e646578206f7574206f6620626f756e6473000000000000000000000000005f82015250565b5f613cc6601383613748565b9150613cd182613c92565b602082019050919050565b5f6020820190508181035f830152613cf381613cba565b9050919050565b5f606082019050613d0d5f83018661341d565b613d1a6020830185613b07565b613d276040830184613b07565b949350505050565b5f819050919050565b5f67ffffffffffffffff82169050919050565b5f613d65613d60613d5b84613d2f565b613add565b613d38565b9050919050565b613d7581613d4b565b82525050565b5f602082019050613d8e5f830184613d6c565b92915050565b7f416d6f756e74206d7573742062652067726561746572207468616e20300000005f82015250565b5f613dc8601d83613748565b9150613dd382613d94565b602082019050919050565b5f6020820190508181035f830152613df581613dbc565b9050919050565b7f496e73756666696369656e742062616c616e63650000000000000000000000005f82015250565b5f613e30601483613748565b9150613e3b82613dfc565b602082019050919050565b5f6020820190508181035f830152613e5d81613e24565b9050919050565b7f4461696c79207769746864726177616c206c696d6974206578636565646564005f82015250565b5f613e98601f83613748565b9150613ea382613e64565b602082019050919050565b5f6020820190508181035f830152613ec581613e8c565b9050919050565b5f81905092915050565b50565b5f613ee45f83613ecc565b9150613eef82613ed6565b5f82019050919050565b5f613f0382613ed9565b9150819050919050565b7f5769746864726177616c206661696c65640000000000000000000000000000005f82015250565b5f613f41601183613748565b9150613f4c82613f0d565b602082019050919050565b5f6020820190508181035f830152613f6e81613f35565b9050919050565b5f608082019050613f885f830187613013565b613f956020830186613013565b613fa26040830185613b07565b613faf6060830184613b07565b95945050505050565b7f4465706f73697420616d6f756e7420746f6f20736d616c6c00000000000000005f82015250565b5f613fec601883613748565b9150613ff782613fb8565b602082019050919050565b5f6020820190508181035f83015261401981613fe0565b9050919050565b5f6080820190506140335f83018761327d565b6140406020830186613013565b61404d6040830185613013565b61405a6060830184613013565b95945050505050565b7f4d656d6f727920646f6573206e6f7420657869737400000000000000000000005f82015250565b5f614097601583613748565b91506140a282614063565b602082019050919050565b5f6020820190508181035f8301526140c48161408b565b9050919050565b7f4d656d6f7279206e6f7420666f756e64000000000000000000000000000000005f82015250565b5f6140ff601083613748565b915061410a826140cb565b602082019050919050565b5f6020820190508181035f83015261412c816140f3565b9050919050565b7f496e73756666696369656e7420676173206465706f73697400000000000000005f82015250565b5f614167601883613748565b915061417282614133565b602082019050919050565b5f6020820190508181035f8301526141948161415b565b9050919050565b5f815190506141a9816135f0565b92915050565b5f602082840312156141c4576141c3613044565b5b5f6141d18482850161419b565b91505092915050565b5f81519050919050565b5f6141ee826141da565b6141f88185613ecc565b9350614208818560208601613758565b80840191505092915050565b5f61421f82846141e4565b91508190509291505056fea2646970667358221220ed9fc65c1b64685c28c35fd9dd3e3afa5fd203a757d168de138727a47263a42b64736f6c634300081c0033",
  "linkReferences": {},
  "deployedLinkReferences": {},
  "immutableReferences": {
    "482": [
      {
        "length": 32,
        "start": 10109
      },
      {
        "length": 32,
        "start": 10194
      },
      {
        "length": 32,
        "start": 10636
      }
    ]
  },
  "inputSourceName": "project/contracts/RecallOSMemoryRegistry.sol",
  "buildInfoId": "solc-0_8_28-7547fb182b04c94f572c120b05b0003e5ddc6d97"
}